:020000040800F2
:100000008810002001010008BD8F00085962000817
:10001000818A0008B90E000831C9000800000000FC
:100020000000000000000000000000004DC60008B5
:100030001D1B00080000000065C2000899C70008E9
:100040001B0100081B0100081B0100081B01000820
:100050001B0100081B0100081B0100081B01000810
:100060001B0100081B0100081B0100081B01000800
:100070001B0100081B0100081B0100081B010008F0
:100080001B0100081B0100081B0100081B010008E0
:100090001B0100081B0100081B0100081B010008D0
:1000A0001B0100081B0100081B0100081B010008C0
:1000B0001B010008A1C700081B0100081B01000864
:1000C0001B0100081B0100081B0100081B010008A0
:1000D0001B010008B9C8000819C9000825C9000893
:1000E000691F00081B0100081B010008DFF80CD085
:1000F00000F09CFA0048004755CE00088810002008
:100100000648804706480047FEE7FEE7FEE7FEE7B1
:10011000FEE7FEE7FEE7FEE7FEE7FEE79DC7000815
:10012000ED00000840EA01039B0703D009E008C97D
:10013000121F08C0042AFAD203E011F8013B00F8AC
:10014000013B521EF9D27047D2B201E000F8012BF8
:10015000491EFBD270470022F6E710B513460A4647
:1001600004461946FFF7F0FF204610BD30B505469E
:100170002A460B4612F8010B13F8014B08B1A042B6
:10018000F8D01CB1002802D06D1CF1E7284630BD24
:10019000CAB2401E10F8011F8A4202D00029F9D1CC
:1001A00000207047421C10F8011B0029FBD1801A67
:1001B000704730B504460020034600E05B1C9342C4
:1001C00003D2E05CCD5C401BF8D030BD10B50446D6
:1001D00000E0401C0378002BFBD100E0401C521EC5
:1001E00004D311F8013B0370002BF7D100210170FB
:1001F000204610BD30B505460020034600E05B1CDC
:10020000934205D2EC5CC85C201A01D1002CF6D1D7
:1002100030BD10B5484304460DF014FE002805D04B
:100220000021002C02D0641E0155FAE710BD30B544
:100230000B46014600202022012409E021FA02F5A4
:100240009D4205D303FA02F5491B04FA02F528443E
:10025000151EA2F10102F1DC30BD2DE9F05F05466B
:10026000002092469B4688460646814640241BE075
:10027000284641464746224600F0FFF953465A4673
:10028000C01A914110D311461846224600F0E6F9F3
:100290002D1A67EB01084F4622460120002100F08D
:1002A000DDF917EB00094E41201EA4F10104DFDC4B
:1002B000484631462A464346BDE8F09F2DE9FE4FA9
:1002C000804681EA0300C00F0C46009021F00041F7
:1002D00023F00045B8EB0200A94105D24046214673
:1002E00090461C460B46024623F00040104347D080
:1002F000270DC7F30A00C3F30A510290401A019078
:1003000040286BDAC3F3130040F4801B0098924638
:1003100020B10023D2EB030A63EB0B0B0198594683
:10032000C0F14002504600F099F906460D4650468D
:100330005946019A00F0B1F910EB08006141002420
:1003400087EA115284EAE7731A4340D0009A62B3F5
:10035000019A012A4FEA075215DC001B61EB0201EA
:100360004FF0004202EA0752CDE90042001C41F57D
:10037000801132462B4600F0B1F903B0BDE8F08F92
:1003800040462146F9E7001B61EB0201001C41F5E4
:10039000801300185B412018A2F5001747EB0301FA
:1003A00040EAD570B6196D4111E06D084FEA360686
:1003B00045EAC0754FEA0752001B61EB0201001CC1
:1003C00041F5801149084FEA300000195141324689
:1003D0002B4603B0BDE8F04F00F071B90098012240
:1003E00040000023D0EB020263EBE073009821464B
:1003F0004FEAE074B8EB000061EB0401E9E783F039
:1004000000435BE781F0004158E72DE9FE4F81EAA8
:10041000030404F0004421F0004100944FF0000B6D
:1004200023F0004350EA01045ED052EA03045BD09B
:10043000C3F30A54C1F30A552C44A4F2F3340194D3
:10044000A0FB0254C1F3130141F48011C3F3130361
:1004500043F4801301FB024400FB034E840A970A15
:1004600044EA815447EA8357A4FB076802958D0A42
:1004700005FB07854FEA932C04FB0C542705029DCE
:100480004FEA065847EA1637B5EB08056EEB070C3E
:10049000870E920E47EA811742EA8312A7FB0201F8
:1004A000B6EB0B0164EB00042B0D43EA0C335E1832
:1004B00044EB1C50DA465146E7FB0201C5F3130436
:1004C0004FEA0B3343EA14534FEA0432019C43EAE8
:1004D0000603A4F10C040294009CCDE900B400F0E2
:1004E000FDF803B0BDE8F08F00200146F9E72DE9E3
:1004F000F04D81EA030404F0004B21F0004514465E
:100500004FF0000A23F0004150EA050220D054EADF
:1005100001021DD0C5F30A570246C5F31303C1F308
:100520001300C1F30A5640F4801543F48013A7EB7F
:100530000608101BD64608F2FD3873EB050002D3FF
:1005400008F1010801E092185B41B8F1000F03DAED
:1005500000200146BDE8F08D00204FF480110646D2
:1005600084460EE0171B73EB050705D3121B63EBE4
:10057000050306434CEA010C49084FEA3000921883
:100580005B4150EA0107EDD152EA030012D082EA42
:10059000040083EA0501084305D0101BAB4106D2D5
:1005A0000122002306E000224FF0004302E06FF03A
:1005B000010253101AEB06004CEB085110EB0A0035
:1005C00041EB0B01BDE8F04D00F079B8C1F30A52E0
:1005D000C1F3130140F2FF3341F480119A4202DA71
:1005E00000200146704740F233439A42A2F2334260
:1005F00002DC524200F041B800F030B830B5041EC1
:1006000071F1000404DB4FF00044404264EB01014F
:10061000141E73F1000405DB1C464FF000435242E8
:1006200063EB0403994208BF904230BD1CB50948F2
:100630000090094801900546009C06E0E06840F003
:10064000010394E8070098471034AC42F6D3FFF753
:1006500051FD000074EC000894EC0008202A04DB33
:10066000203A00FA02F1002070479140C2F12003C5
:1006700020FA03F3194390407047202A04DB203A04
:1006800021FA02F00021704721FA02F3D040C2F1B2
:1006900020029140084319467047202A06DBCB17F9
:1006A000203A41FA02F043EAE07306E041FA02F32D
:1006B000D040C2F12002914008431946704710B55E
:1006C000141E73F1000408DA401C41F10001921875
:1006D0005B411A4301D120F0010010BD2DE9F04D1E
:1006E00092469B4611B1B1FA81F202E0B0FA80F273
:1006F00020329046FFF7B2FF04460F4640EA0A0058
:1007000041EA0B0153465A46084313D0114653EAB7
:10071000010019D0C8F140025046FFF7AEFF054670
:100720000E46504659464246FFF798FF084305D00B
:10073000012004E020463946BDE8F08D0020054345
:1007400046EAE0762C4337430A986305E40AA0EBB7
:1007500008000022FD0A44EA47540A3002D500206E
:100760000146E9E7010510196941DDE9084500196D
:100770006941BDE8F04DA2E780B540F63C10C2F2F9
:1007800000000168CA6842F01002CA6040F26011BD
:10079000C2F20001C82205F031FC40F23C10C2F266
:1007A00000000021418080BDFF2884BFFF207047EA
:1007B00080B584B0024601200DF10F01CDE9001093
:1007C00040F634004FF47A7CC2F20000A1210123EC
:1007D000CDF808C003F036F99DF80F0004B080BDD5
:1007E000FF2888BF70472DE9F04F85B004461044BC
:1007F000B0F5807F88BFC4F58072100426D040F623
:1008000034080D4697B200264FF47A794FF0010A6A
:100810000DF1130BC2F2000805E000BFFF20A85540
:100820000136B74212D0A01982B2FF2AF6D840464C
:10083000A1210123CDE900BACDF8089003F002F917
:100840009DF81300A8550136B742ECD105B0BDE8BC
:10085000F04F70472DE9F04F85B00546C4B24FF414
:10086000FA70029040F634008DF8121001260DF156
:100870001207C2F20000A021224601230097019630
:1008800003F086FA0A2002F0F5FEFF2D2CD99DF820
:100890001200FF2864D040F634004FF4FA750126A8
:1008A000C2F20000A02122460123CDE90076029584
:1008B00003F06EFA0A2002F0DDFE9DF81200FF2818
:1008C0004ED040F63400C2F20000A021224601239F
:1008D000CDE90076029503F05BFA0A2002F0CAFE29
:1008E00005B0BDE8F08F00BF40F634004FF47A7ACF
:1008F0000DF11308C2F20000A1212A460123CDE91F
:100900000086CDF808A003F09DF89DF813009DF82F
:100910001210884224D040F63406C2F200064FF48A
:10092000FA7B4FF001093046A02122460123CDE990
:100930000079CDF808B003F02BFA0A2002F09AFEF5
:100940003046A1212A460123CDE90089CDF808A02F
:1009500003F078F89DF813009DF81210884203D137
:1009600005B0BDE8F08F00BF40F63406C2F20006C5
:100970003046A021224601230097CDF808B0CDF8DB
:10098000049003F005FA0A2002F074FE4FF47A771F
:100990003046A1212A460123CDE90089029703F0C0
:1009A00051F805B0BDE8F08FFF2884BF01207047E3
:1009B000F0B581B004461044B0F5807F88BFC4F51F
:1009C0008072100416D090B20D4646424FF0FF30B0
:1009D000471C2844E219417890B2FFF73BFF0520FD
:1009E00002F048FEF01901303846F1D1002001B084
:1009F000F0BD00BF012001B0F0BD00002DE9F04FB7
:100A000087B008F0DDFA81A2002000210223002631
:100A100008F09CFD08F0C6FD4EF66F450FF2542A13
:100A2000C0F600050FF2382B85A70FF2202900240D
:100A30001EE000BF002020213A460123002608F0D6
:100A400085FD08F0AFFD0AF027F900285AD040F2E2
:100A5000DC584A46002020210123002408F076FDBE
:100A600008F0A0FD404602F005FE642002F002FE00
:100A7000F0B20428F9D8DFE800F00523031D4D008B
:100A8000D8E700BF002010215246012308F05EFD88
:100A900008F088FD09F024FE20B90120012609F0A4
:100AA0003FFD88B3002018212A4601230134002687
:100AB0001EE000BF0AF0A4FA002863D10426D4E7A0
:100AC00008F07EFA002010215A46012308F03EFD6E
:100AD00008F068FD09F004FE20B90220022609F0A2
:100AE0001FFDA8B1002018212A4601230134012648
:100AF00008F02CFD08F056FDE0B2022842D840F282
:100B0000DC50B0E70326B0E74FF4FA785DA2A1E726
:100B10000024AAE706F022FB40F23C15C2F20005D1
:100B20002878C10702D1012100261BE0810703D4E8
:100B30000221012616E000BF410703D4042102264A
:100B400010E000BF010703D4082103260AE000BF1C
:100B5000C10603D41021042604E000BF810645D459
:100B600020210526B41C08432870022021460AF0E3
:100B700063FB38B301202978B04021EA00002870D7
:100B80000BF066FD08F01CFA42A2002010210123A0
:100B900008F0DCFC08F006FD4FF4FA6002F06AFD94
:100BA00040F24110C2F20000007828B107F06AFF5D
:100BB00007B0BDE8F08F00BF07F0D4FE07B0BDE876
:100BC000F08F00BF0BF044FD08F0FAF917A20020E7
:100BD0001021022308F0BAFC01AD17A128462246D5
:100BE0000CF07AFC002020212A46D0E708F0E8F932
:100BF0000AA200201021012308F0A8FC08F0D2FC72
:100C00004FF4FA6002F036FDBCE700BF4164642097
:100C100046696E6765727072696E740053746F72A4
:100C20006167652066756C6C21000000456E726F0F
:100C30006C6C204F4B21000049443A202564000091
:100C40004D61746368696E672E2E2E004E6F74209E
:100C50006D617463682C2072657472790000000005
:100C6000416761696E2073616D652066696E6765B5
:100C700072000000506C6163652066696E67657282
:100C80002E2E2E0046696E676572204F4B2C206C0D
:100C900069667400456E726F6C6C206661696C6584
:100CA000642100002DE9F04385B00020CDF80B0051
:100CB0000290CDF80300009002A910200622FFF751
:100CC0008FFD9DF80800FF3810F1FF0F0CD843F29C
:100CD0003560039043F23120C3F23340029002A901
:100CE00010200622FFF760FE4EF6B8394EF6CA36DF
:100CF0004EF6A8350FF2A808C0F60009C0F60006A7
:100D00006F4602ACC0F6000508F05AF90020082131
:100D10004246022308F01AFC002010214A46012313
:100D200008F014FC002038213246012308F00EFCA4
:100D300008F038FC3846062105F0D0FEA0B9384648
:100D400021460622FFF735FA20B308F039F90020D2
:100D500010212A46022308F0F9FB08F023FC40F298
:100D6000DC5002F087FCCFE708F02AF94EF67F222C
:100D7000C0F60002002010210123002408F0E6FB49
:100D800008F010FC4FF47A7002F074FC204605B0B5
:100D9000BDE8F0830124204605B0BDE8F08300BF24
:100DA00041646D696E204C6F67696E0010B540F24A
:100DB00008140A2828BF0A20C2F2000404F8040B11
:100DC000012004F8030C40F60000C4F201004FF4C7
:100DD0000061002202F078FD20466421BDE8104049
:100DE0000BF0CCBC10B586B00020CDE90400CDE9F5
:100DF000020041F21800C4F20200016840F600044B
:100E000041F0040101600068C4F2010400F0040034
:100E1000019001984FF4006002900120039002209D
:100E2000059002A9204602F039FC20464FF40061EB
:100E3000012202F049FD06B010BD0000B0B540F23D
:100E40000815C2F200056878A0B32C1D20460BF0EF
:100E500081FC78B36878022814D0012818BFB0BD8F
:100E600040F60000C4F201004FF40061012202F0DC
:100E70002BFD0222204664216A70BDE8B0400BF0D1
:100E80007DBC00BF287801380106287010D00120F1
:100E9000687040F60000C4F201004FF400610022C7
:100EA00002F012FD20466421BDE8B0400BF066BCA4
:100EB00000206870B0BD0000FEE700002DE9F04F93
:100EC00083B040F6000BC4F2010B01920E460746B8
:100ED0004FF08A094FF0000A5846102100228DF881
:100EE00009908DF80BA002F0EFFC40F69C04C2F2D2
:100EF00000040DF10901204601224FF0FF3303F0F9
:100F00001FFF0DF10B01204601224FF0FF3303F0CC
:100F100017FE58461021012202F0D6FC9DF80B0066
:100F20000A2100F0FB008DF809108DF80A005846E0
:100F30001021002202F0C8FC0DF109012046022216
:100F40004FF0FF33022503F0FBFE5846102101222B
:100F500002F0BAFC584610210022ADF8095002F008
:100F6000B3FC0DF10901204602224FF0FF3303F0DC
:100F7000E7FE58461021012202F0A6FC94208DF8CD
:100F800009005846102100228DF80BA002F09CFCAD
:100F90000DF10901204601224FF0FF3303F0D0FE8E
:100FA0000DF10B01204601224FF0FF3303F0C8FD85
:100FB00058461021012202F087FC9DF80B001421F5
:100FC00040F080008DF809108DF80A005846102175
:100FD000002202F079FC0DF10901204602224FF0B7
:100FE000FF3303F0ADFE58461021012202F06CFCE5
:100FF0000EB340F69C047D1E4FF01208C2F20004AE
:101000000DF1090715F8010F10218DF80A00584657
:1010100000228DF8098002F057FC20463946022252
:101020004FF0FF3303F08CFE58461021012202F0EE
:101030004BFC013EE6D140F20230ADF809005846C3
:101040001021002202F040FC40F69C04C2F2000491
:101050000DF109062046314602224FF0FF3303F01E
:101060006FFE58461021012202F02EFCFF250DF1E3
:101070000B0700BF5846102100228DF809908DF80B
:101080000BA002F021FC2046314601224FF0FF3335
:1010900003F056FE2046394601224FF0FF3303F09D
:1010A0004FFD58461021012202F00EFC013D28069A
:1010B00004D09DF80B0010F00400DBD0C4208DF8A4
:1010C000090000255846102100228DF80B5002F02F
:1010D000FBFB40F69C04C2F200040DF1090120461E
:1010E00001224FF0FF3303F02BFE0DF10B012046E0
:1010F00001224FF0FF3303F023FD58461021012257
:1011000002F0E2FB9DF80B00019E10213070C2201E
:101110008DF80900584600228DF80B5002F0D4FBE0
:101120000DF10901204601224FF0FF3303F008FEC4
:101130000DF10B01204601224FF0FF3303F000FDBB
:1011400058461021012202F0BFFB9DF80B00707081
:1011500003B0BDE8F08F0000B0B584B040F2401499
:10116000C2F200042078012812D002F0B3FB40F252
:101170002825C2F200052968401A322808D302F057
:10118000A9FB28600DF10E0152200AF0B9FE08B14A
:1011900004B0B0BD0DF10A000AF056FA0028F7D1EC
:1011A0000DF10A0005F072FCA0B119A00CF080FE50
:1011B0009DF80A109DF80B209DF80C309DF80D50FD
:1011C0000320009506F0B6F901F03CFE0AF07EFE21
:1011D00004B0B0BD13A00CF06BFE0220FFF7E6FDDB
:1011E00007F0EEFE14A200201021022308F0AEF951
:1011F00008F0D8F94FF4487002F03CFA2078002843
:1012000008BF07F0AFFB0AF061FE04B0B0BD00BF3D
:101210004361726420617574686F72697A65640DE8
:1012200000000000556E617574686F72697A6564BC
:1012300020636172640D0000556E617574686F7291
:10124000697A65642100000010B5802000F0AEF8D6
:10125000010901EB810100F00F0040F2240400EBD2
:101260004100C2F200042070822000F09FF80109C2
:1012700001EB810100F00F0000EB41006070842061
:1012800000F094F8010901EB810100F00F0000EB80
:101290004100A070862000F089F8010901EB81016E
:1012A00000F00F0000EB4100E070882000F07EF8B5
:1012B000010901EB810100F00F0000EB41002071FA
:1012C0008A2000F073F8010901EB810100F00F00A2
:1012D00000EB410060718C2000F068F8010901EB1F
:1012E000810100F00F0000EB4100A07110BD000073
:1012F00010B586B00020CDE90400CDE9020041F22E
:101300001800C4F20200016840F6004441F00801F0
:1013100001600068C4F2010400F008000190019827
:1013200038200290012003900320059002A9204656
:1013300002F0B4F920462021002202F0C5FA20462E
:101340000821002202F0C0FA20461021002202F0FB
:10135000BBFA06B010BD000010B50446FFF774FFDD
:1013600040F22400C2F200008179643911F1500F7B
:1013700008D301790D3911F10C0F03D3C17800297D
:1013800018BF10BD2178627801702179A37894F894
:1013900003C0427001716179A279837080F803C043
:1013A00041718271BDE8104000F064B92DE9F04F41
:1013B00085B040F60044C4F2010440F00105204627
:1013C00020210022002602F07FFA00BF00BF00BFEC
:1013D00000BF00BF00BF00BF20460821002200BFA1
:1013E00002F072FA00BF00BF00BF00BF00BF00BF25
:1013F00000BF20462021012200BF02F065FA00BF95
:1014000000BF00BF00BF00BF00BF00BF284600BF35
:101410000BF0F4FB1020CDE9010601A9204604964B
:10142000039602F03BF92046102102F03FFA2046D5
:101430000821002202F048FA00BF00BF00BF00BF31
:1014400000BF00BF00BF20460821012200BF02F0FC
:101450003BFA00BF00BF00BF00BF00BF00BF00BF1E
:101460002046102100BF02F021FA05460028204640
:101470004FF008014FF0000218BF012502F024FAD6
:1014800000BF00BF00BF00BF00BF00BF00BF2046BD
:101490000821012200BF02F017FA00BF00BF00BF01
:1014A00000BF00BF00BF00BF2046102100BF02F0F8
:1014B000FDF9804620460821002202F005FA00BF0F
:1014C00000BF00BF00BF00BF00BF00BF2046082113
:1014D000012200BF02F0F8F900BF00BF00BF00BF4B
:1014E00000BF00BF00BF2046102100BF02F0DEF9A0
:1014F000814620460821002202F0E6F900BF00BF25
:1015000000BF00BF00BF00BF00BF2046082101226E
:1015100000BF02F0D9F900BF00BF00BF00BF00BF8D
:1015200000BF00BF2046102100BF02F0BFF9824675
:1015300020460821002202F0C7F900BF00BF00BF0B
:1015400000BF00BF00BF00BF20460821012200BF2E
:1015500002F0BAF900BF00BF00BF00BF00BF00BF6C
:1015600000BF2046102100BF02F0A0F983462046AC
:101570000821002202F0A8F900BF00BF00BF00BF91
:1015800000BF00BF00BF20460821012200BF02F0BB
:101590009BF900BF00BF00BF00BF00BF00BF00BF7E
:1015A0002046102100BF02F081F90646204608219E
:1015B000002202F089F900BF00BF00BF00BF00BFDA
:1015C00000BF00BF20460821012200BF02F07CF9C5
:1015D00000BF00BF00BF00BF00BF00BF00BF20466C
:1015E000102100BF02F062F90746204608210022C0
:1015F00002F06AF900BF00BF00BF00BF00BF00BF1C
:1016000000BF00BFB8F1000F18BF0235B9F1000FDD
:1016100018BF0435BAF1000F18BF0835BBF1000F31
:1016200018BF45F01005002E18BF45F020052046D4
:1016300008210122002F18BF45F0400502F044F9AF
:1016400000BF00BF00BF00BF00BF00BF00BF2046FB
:101650002021002200BF02F037F900BF00BF00BF09
:1016600000BF00BF00BF00BFE8B200BF05B0BDE8CB
:10167000F08F0000F0B581B040F60044C4F20104E0
:1016800020462021002202F01FF900BF00BF00BF4A
:1016900000BF00BF00BF00BF20460821002200BFDE
:1016A00002F012F900BF00BF00BF00BF00BF00BFC3
:1016B00000BF20462021012200BF02F005F900BF33
:1016C00000BF00BF00BF00BF00BF00BF8E2000BF33
:1016D0000BF094FA00200BF091FA20462021002212
:1016E00002F0F2F800BF00BF00BF00BF00BF00BFA4
:1016F00000BF40F2240600BFC2F200063078CD27BA
:10170000C1B27943C90A01EB8102A0EB420040EA71
:10171000011520462021002202F0D6F800BF00BFAC
:1017200000BF00BF00BF00BF00BF2046082100224D
:1017300000BF02F0C9F800BF00BF00BF00BF00BF7C
:1017400000BF00BF20462021012200BF02F0BCF8EC
:1017500000BF00BF00BF00BF00BF00BF00BF8020B0
:1017600000BF0BF04BFAE8B20BF048FA20462021FC
:10177000002202F0A9F800BF00BF00BF00BF00BFF9
:1017800000BF00BF00BF7078C1B27943C90A01EB46
:101790008102A0EB420040EA0115204620210022F0
:1017A00002F092F800BF00BF00BF00BF00BF00BF43
:1017B00000BF20460821002200BF02F085F800BFCC
:1017C00000BF00BF00BF00BF00BF00BF20462021F8
:1017D000012200BF02F078F800BF00BF00BF00BFC9
:1017E00000BF00BF00BF822000BF0BF007FAE8B2C5
:1017F0000BF004FA20462021002202F065F800BF19
:1018000000BF00BF00BF00BF00BF00BF00BFB07877
:10181000C1B27943C90A01EB8102A0EB420040EA60
:10182000011520462021002202F04EF800BF00BF23
:1018300000BF00BF00BF00BF00BF2046082100223C
:1018400000BF02F041F800BF00BF00BF00BF00BFF3
:1018500000BF00BF20462021012200BF02F034F863
:1018600000BF00BF00BF00BF00BF00BF00BF84209B
:1018700000BF0BF0C3F9E8B20BF0C0F920462021FD
:10188000002202F021F800BF00BF00BF00BF00BF70
:1018900000BF00BF00BFF078C1B27943C90A01EBB5
:1018A0008102A0EB420040EA0115204620210022DF
:1018B00002F00AF800BF00BF00BF00BF00BF00BFBA
:1018C00000BF20460821002200BF01F0FDFF00BF3D
:1018D00000BF00BF00BF00BF00BF00BF20462021E7
:1018E000012200BF01F0F0FF00BF00BF00BF00BF3A
:1018F00000BF00BF00BF862000BF0BF07FF9E8B239
:101900000BF07CF920462021002201F0DDFF00BF12
:1019100000BF00BF00BF00BF00BF00BF00BF3079E5
:10192000C1B27943C90A01EB8102A0EB420040EA4F
:10193000011520462021002201F0C6FF00BF00BF94
:1019400000BF00BF00BF00BF00BF2046082100222B
:1019500000BF01F0B9FF00BF00BF00BF00BF00BF64
:1019600000BF00BF20462021012200BF01F0ACFFD4
:1019700000BF00BF00BF00BF00BF00BF00BF882086
:1019800000BF0BF03BF9E8B20BF038F920462021FC
:10199000002201F099FF00BF00BF00BF00BF00BFE1
:1019A00000BF00BF00BF757920462021002201F052
:1019B0008BFF00BF00BF00BF00BF00BF00BF00BF64
:1019C00020460821002200BF01F07EFF00BF00BFBB
:1019D00000BF00BF00BF00BF00BF20462021012282
:1019E00000BF01F071FF00BF00BF00BF00BF00BF1C
:1019F00000BF00BF8A2000BF0BF000F928460BF0A3
:101A0000FDF820462021002201F05EFF00BF00BF4C
:101A100000BF00BF00BF00BF00BF00BFB079C1B2B0
:101A20007943C90A01EB8102A0EB420040EA0115AB
:101A300020462021002201F047FF00BF00BF00BF69
:101A400000BF00BF00BF00BF20460821002200BF2A
:101A500001F03AFF00BF00BF00BF00BF00BF00BFE2
:101A600000BF20462021012200BF01F02DFF00BF52
:101A700000BF00BF00BF00BF00BF00BF8C2000BF81
:101A80000BF0BCF8E8B20BF0B9F820462021002298
:101A900001F01AFF00BF00BF00BF00BF00BF00BFC2
:101AA00000BF20462021002200BF01F00DFF00BF33
:101AB00000BF00BF00BF00BF00BF00BF204608211D
:101AC000002200BF01F000FF00BF00BF00BF00BF49
:101AD00000BF00BF00BF20462021012200BF01F04F
:101AE000F3FE00BF00BF00BF00BF00BF00BF00BFCC
:101AF0008E2000BF0BF082F880200BF07FF820468C
:101B00002021002201F0E0FE00BF00BF00BF00BFA7
:101B100000BF00BF00BF00BF01B0F0BD70470000B4
:101B200080B540F23020C2F200004FF40071FEF7A1
:101B300012FB40F20010C2F200000021018080BDC3
:101B40002DE9F04140F2001740F230254EF2A57623
:101B50000446C2F200074FF00008C2F20005C0F6CA
:101B6000000607E07880052001F084FD2004A4F140
:101B7000010415D038880028F5D079888842F1D141
:101B800028463146A7F80080FEF7F0FA0028EAD090
:101B90003A21FEF7FDFA002818BF0130BDE8F081B8
:101BA0000020BDE8F08100002DE9F04740F2302A26
:101BB000C2F2000A50464FF40071FEF7CCFA40F230
:101BC0000015C2F20005002675A02E800CF070F9F9
:101BD00040F684184EF2AA77C2F200080FF2C81934
:101BE000C0F6000704E000BF4FF4FA7001F042FDB8
:101BF0004046494604220AF09DFEC72408E000BF83
:101C000068800A2001F036FD2006A4F10104EBD023
:101C100028880028F5D069888842F1D15046394695
:101C20002E80FEF7A3FA0028EBD040F2302AC2F251
:101C3000000A50464FF40071FEF78DFA5CA00CF0DC
:101C400037F940F684184EF2AA77C2F200080FF274
:101C50006C190026C0F6000704E000BF4FF4FA70CC
:101C600001F008FD404649460D220AF063FEC724F4
:101C700008E000BF68800A2001F0FCFC2006A4F107
:101C80000104EBD028880028F5D069888842F1D17A
:101C9000504639462E80FEF769FA0028EBD040F214
:101CA000302AC2F2000A50464FF40071FEF753FA90
:101CB00046A00CF0FDF840F684184EF2AA77C2F266
:101CC00000080FF218190026C0F6000704E000BF54
:101CD0004FF4FA7001F0CEFC404649460F220AF05C
:101CE00029FEC72408E000BF68800A2001F0C2FC7A
:101CF0002006A4F10104EBD028880028F5D06988DB
:101D00008842F1D1504639462E80FEF72FFA00283E
:101D1000EBD040F2302AC2F2000A50464FF4007174
:101D2000FEF719FA31A00CF0C3F840F68418C2F29D
:101D300000080FF2C409002638A703E04FF4FA7038
:101D400001F098FC4046494620220AF0F3FDC724E2
:101D500008E000BF68800A2001F08CFC2006A4F196
:101D60000104EBD028880028F5D069888842F1D199
:101D7000504639462E80FEF7F9F90028EBD040F2A4
:101D80003020C2F200004FF40071FEF7E4F925A004
:101D90000CF08EF84FF4FA70BDE8F04701F06ABC21
:101DA000312E2041540D000041540D0A0000000066
:101DB000322E2043574D4F44450D000041542B43D4
:101DC000574D4F44453D310D0A000000332E204150
:101DD000542B4357444843500D00000041542B43BB
:101DE00057444843503D312C310D0A00342E2043D6
:101DF000574A41500D00000041542B43574A41506F
:101E00003D223238353032222C22313539313934C5
:101E10003831363434220D0A00000000474F542078
:101E200049500000352E204553503832363620496F
:101E30006E6974204F4B0D002DE9F0410C460546AC
:101E4000FEF7B0F982B240F68410C2F200002946D3
:101E50000AF070FD40F2001640F23025C727C2F2AA
:101E600000064FF00008C2F2000507E070800A206B
:101E700001F000FC3806A7F1010719D030880028CE
:101E8000F5D071888842F1D128462146A6F8008015
:101E9000FEF76CF90028EAD040F23020C2F20000D0
:101EA0004FF40071FEF757F900203080BDE8F08153
:101EB0000120BDE8F08100002DE9F04389B040F237
:101EC0003026C2F200068946804630464FF4007143
:101ED000FEF741F940F2001501AFC2F200050024FF
:101EE0001DA138464A462C800BF0F6FA3846FEF71C
:101EF00059F982B240F68410C2F2000039460AF065
:101F000019FDC72708E000BF68800A2001F0B2FB76
:101F10003806A7F101071CD028880028F5D0698869
:101F20008842F1D130463E212C80FEF731F900285D
:101F3000EBD040F23020C2F200004FF40071FEF707
:101F40000AF940F68410C2F2000041464A460AF0FF
:101F5000F1FC09B0BDE8F08341542B43495053458F
:101F60004E443D25640D0A0040F21440C4F20100C5
:101F70000168090458BF70474FF40041016040F206
:101F8000304241F20000C2F200020123C4F201001B
:101F90004FF40051137001F08FBC00004EF66F41FA
:101FA0004EF2AA72C0F60001C0F60002002808BF77
:101FB0001146084670470000EFF3108072B600BF6C
:101FC000FEE7000040F24110C2F200000078002855
:101FD00018BFFEF713BDB0B506F0F2FF4EF6302283
:101FE000C0F60002002010210123012407F0AEFA00
:101FF00007F0D8FA40F22815C2F2000505F10800F2
:1020000040F2DC510AF0BAFBEC70B0BDF0B589B01B
:1020100040F24110C2F20000047806F0D1FF002C1B
:1020200062D05EA200201021012307F08FFA5FA288
:1020300000201821012307F089FA07F0B3FA5EA007
:102040000BF036FF01F046FC044601F043FC001B98
:1020500042F20F7188422BD803AD08AE42F21077DE
:1020600008E000BF642001F005FB01F033FC001B19
:10207000B8421DD25220294609F042FF0028F1D172
:10208000304609F0E1FA002848D0052001F0F2FAC4
:10209000304609F0D9FA002840D0052001F0EAFACC
:1020A000304609F0D1FAC8B3052001F0E3FAD9E7C8
:1020B00006F086FF46A200201021012307F046FA11
:1020C00007F070FA4FF4FA6001F0D4FA40F22814E5
:1020D000C2F2000404F108004FF4FA710AF04EFB5A
:1020E0000120E07009B0F0BD4EF63022C0F60002CB
:1020F000002010210123012407F028FA07F052FAEA
:1021000040F22815C2F2000505F1080040F2DC514A
:102110000AF034FBEC7009B0F0BD00BF09F0D6FE48
:102120009DF820109DF821209DF822309DF8237005
:102130002CA000970BF0A6F908A804F0D3FB0446E6
:1021400006F03EFF012C21D014BB08A90620042272
:1021500005F0DEF932A200201021022307F0F6F983
:102160009DF820209DF821309DF822709DF8236075
:102170004EF6692103ACC0F600012046CDE9007699
:102180000BF0AAF900202021224696E71FA292E731
:102190004EF60832C0F600028DE700BF506C616356
:1021A000652063617264206E6561720072656164AE
:1021B00065722E2E2E00000057616974696E6720CB
:1021C000666F7220636172642E2E2E0D0000000077
:1021D00054696D656F75742C206E6F206361726435
:1021E0000000000043617264206465746563746577
:1021F00064205549443A202530325825303258253C
:10220000303258253032580D0A00000043617264A4
:1022100020616C72656164792065786973747300FC
:1022200043617264206164646564210080B540F29A
:102230004110C2F200000021017040F24010C2F2D1
:102240000000017006F0BCFEBDE8804006F08ABBCD
:10225000B0B588B040F24110C2F20000047806F038
:10226000AFFEDCB15FA20020102101230025012474
:1022700007F06CF907F096F906A80621CDF81B5077
:10228000069504F02BFC18B306F09AFE4EF67F225A
:10229000C0F6000200201021012307E04EF6302294
:1022A000C0F60002002010210123012407F04EF99E
:1022B00007F078F940F22815C2F2000505F1080090
:1022C00040F2DC510AF05AFAEC7008B0B0BD00BF21
:1022D00004AC102021460622CDF813500495FEF7D9
:1022E0007FFA06A821460622FDF763FF90B106F0AB
:1022F00067FE40A200201021012307F027F907F014
:1023000051F940F2DC5001F0B5F906F0BBFB08B022
:10231000B0BD00BF0020CDF80B000290CDF8030047
:10232000009006F04DFE36A2002010210123012569
:1023300007F00CF907F036F902A8062104F0CEFBED
:10234000044606F03DFEBCB14EF67F22C0F6000208
:1023500000201021012307F0F9F807F023F940F2DB
:102360002814C2F2000404F1080040F2DC510AF023
:1023700005FAE57008B0B0BD25A2002010210123A8
:10238000012407F0E3F807F00DF96846062104F090
:10239000A5FB00287FF478AF02A869460622FDF766
:1023A00029FF18B106F00CFE1DA2A3E702A9102018
:1023B0000622FEF7F9FA044606F002FE24B14EF6B4
:1023C0001322C0F6000295E718A200201021012375
:1023D00007F0BCF807F0E6F803200021002205F022
:1023E00097F88EE74F6C642041646D696E205077DA
:1023F000643A000057726F6E6720507764210000C6
:102400004E65772041646D696E205077643A000014
:10241000436F6E6669726D204E65773A000000006A
:102420004E6F74204D6174636821000041646D69D2
:102430006E20507764204368616E67656400000019
:10244000B0B586B006F0BCFD63A2002010210223C7
:10245000002407F07BF807F0A5F84FF47A7001F03C
:1024600009F9FEF71FFC88B3CDF813400494CDF8AA
:102470000B40029406F0A4FD5BA200201021012372
:10248000012507F063F807F08DF804A8062104F091
:1024900025FB044606F094FD74B34EF67F22C0F689
:1024A000000200201021012307F050F807F07AF80D
:1024B00040F22814C2F2000404F1080040F2DC519A
:1024C0000AF05CF9E57006B0B0BD00BF06F078FD1B
:1024D0004EF62122C0F6000200201021022307F050
:1024E00035F807F05FF840F2DC5001F0C3F806B0B1
:1024F000BDE8B04006F0C6BA3FA20020102101237B
:10250000012407F023F807F04DF802A8062104F093
:10251000E5FAC8B106F054FD4EF67F22C0F600027F
:1025200000201021012307F011F807F03BF840F2DA
:102530002815C2F2000505F1080040F2DC510AF04E
:102540001DF9EC7006B0B0BD04A802A90622FDF783
:1025500051FE18B106F034FD2BA20BE004A91620A1
:102560000622FEF721FAA8B106F02AFD4EF6132244
:10257000C0F6000200201021012306F0E7FF07F05B
:1025800011F840F2DC5001F075F806F07BFA06B065
:10259000B0BD00BF00206C46CDF8030000901620AF
:1025A00021460622FEF71CF904A821460622FDF763
:1025B00000FE28B14EF62124C0F6000406E000BF5C
:1025C00002200021002204F0A3FF12A406F0F8FC70
:1025D000002010212246CFE741646D696E205665C8
:1025E00072696679000000004E6577205573657248
:1025F000205077643A000000436F6E6669726D2068
:102600005077643A000000004E6F74206D6174636F
:10261000680000005573657220507764204368613C
:102620006E6765640000000040F24110C2F20000D5
:102630000078002808BF704770B504F08FFD40F2A5
:102640003C15C2F200052C7806F0BAFCA4B337A200
:1026500000201021022306F079FF37A2002020215C
:10266000012306F073FF06F09DFF01F033F90446E5
:1026700001F030F9001B41F28731884210D841F255
:10268000883600BF04F0AAFB0E2829D00F2823D0DB
:10269000322000F0EFFF01F01DF9001BB042F1D332
:1026A0004EF67F22C0F6000200203021012306F002
:1026B0004DFF4FF47A740AE04EF67132C0F6000214
:1026C00000201021012306F041FF40F2DC5406F007
:1026D00069FF204600F0CEFFBDE8704006F0D2B999
:1026E00008F0AAFE07F048FE80B1044606F068FC38
:1026F00017A200201021012306F028FF2046FFF733
:102700004DFC024600201821DCE700BF00202870A5
:1027100009F09EFF06F054FC11A2002010210223B4
:1027200006F014FF4FF4FA64D1E700BF44656C650E
:10273000746520414C4C3F00507265737320454EC8
:1027400054455220746F20636F6E6669726D00008D
:1027500044656C657465206661696C656421000080
:10276000416C6C2064656C65746564210000000038
:102770002DE9F04F95B040F24110C2F20000007810
:10278000002800F0098110A920201422FEF728F863
:102790009DF8400008B1FF280FD19DF84100FF28A7
:1027A00000D050B99DF84200FF2800D028B99DF80C
:1027B0004300002228B1FF2803D0002001228DF819
:1027C0003B009DF84400FF2800D070B99DF84500FB
:1027D000FF2800D048B99DF84600FF2800D020B956
:1027E0009DF8470030B1FF2804D00DF13B000121D6
:1027F000815401329DF84800FF2800D070B99DF83F
:102800004900FF2800D048B99DF84A00FF2800D0B1
:1028100020B99DF84B0030B1FF2804D00DF13B00EA
:102820000221815401329DF84C00FF2800D070B97C
:102830009DF84D00FF2800D048B99DF84E00FF28B4
:1028400000D020B99DF84F0030B1FF2804D00DF121
:102850003B000321815401329DF85000FF2800D035
:10286000F0B99DF85100FF2800D0C8B99DF852007A
:10287000FF2800D0A0B99DF8530008B1FF280FD160
:102880009AB906F09DFB83A200201021012306F0D7
:102890005DFE06F087FE40F2DC5000F0EBFED9E072
:1028A0000DF13B000421815401321446501E0026D4
:1028B0000FF20C280DF11D07042A28BF04240592ED
:1028C000049005E0C82000F0D5FE322000F0D2FED2
:1028D00006F076FB0020002173A20123002506F0FC
:1028E00035FE10205FFA86FA00EBC60906960BE06B
:1028F000102000EBC500C1B208203A46012306F0C3
:1029000025FE5C455D461FD00DF13B00405D10AAE1
:1029100002EB800112F8203048788A78CE7805F1F1
:10292000010BCDE90002384641465A4602960AF0AC
:10293000D3FDAA45DCD15FFA89F100203E220123B4
:1029400006F0D8FC4846D6E70020382162A20123D1
:1029500006F0FCFD06F026FE04F040FAC0B20B388B
:10296000042817D8DFE800F00E041634760000BF04
:102970000498069950454FF00000C8BF481C064611
:10298000A0E700BF069E3006059808BF0646013E38
:1029900098E700BF069E98E706F012FB4EF630223D
:1029A000C0F60002002010210123012406F0CEFD14
:1029B00006F0F8FD40F22815C2F2000505F1080006
:1029C00040F2DC5109F0DAFEEC7015B0BDE8F08F92
:1029D0000DF13B0010F80A40FF2C3BD010AF202037
:1029E000394614222026FDF7FBFE07EB840507205D
:1029F0002946042204F08CFD4FF0FF3047F82400F4
:102A000006EB840029460422FDF7CEFF06F0D8FA33
:102A100039A200201021022306F098FD17F8242087
:102A20006B78AF78EE784EF669210DF11D04C0F693
:102A300000012046CDE900760AF04EFD002020215D
:102A400022460123012406F081FD06F0ABFD4FF480
:102A5000FA600FE006F0B4FA4EF68922C0F60002E2
:102A6000002010210123012406F070FD06F09AFDDC
:102A700040F2DC5000F0FEFD40F22815C2F20005E5
:102A800005F108004FF4FA7109F078FEEC7015B00A
:102A9000BDE8F08F4E6F20636172647320746F2005
:102AA00064656C657465000053656C6563742063D0
:102AB00061726420746F2064656C6574653A00000F
:102AC00025643A2025303258253032582530325886
:102AD0002530325800000000456E7465723A20635C
:102AE0006F6E6669726D2C204261636B3A20636180
:102AF0006E63656C00000000436172642064656C65
:102B0000657465642100000040F24110C2F20000CB
:102B10000078002808BF70472DE9F04F8BB004F013
:102B20001DFB40F23C10C2F200000078C1070FBF4D
:102B3000002302218DF82610012381071AD44107B2
:102B40001FD4010724D4C10629D480062ED493BBF8
:102B500006F036FA4EF67132C0F60002002010215F
:102B6000012306F0F3FC06F01DFD40F2DC5000F0FE
:102B700081FD99E00DF126010322CA54013341077A
:102B8000DFD50DF126010422CA5401330107DAD53D
:102B90000DF126010522CA540133C106D5D50DF128
:102BA00026010622CA5401338006D0D50DF1260035
:102BB0000721C15401339B46581E00246EA50DF118
:102BC0001206042B28BF4FF0040B0293019005E07E
:102BD000C82000F04FFD322000F04CFD06F0F0F967
:102BE000002000215EA20123002706F0AFFC102088
:102BF00000EBC4095FFA84FA03945FFA89F411E0E8
:102C0000102000EBC707F9B200202022012306F0B4
:102C100071FBF9B208203246012306F097FCC34548
:102C2000474613D00DF12600C35D07F10108304679
:102C3000294642460AF050FCBA45E1D1002021461F
:102C40003E22012306F056FB4F46E2E700203821E2
:102C50004EA2012306F07AFC06F0A4FC04F0BEF8B4
:102C6000C0B20B38042817D8DFE800F00E0416189D
:102C70001E0000BF0198039950454FF00000C8BFE7
:102C8000481C0446A4E700BF039C2006029808BF26
:102C90000446013C9CE700BF039C9CE70DF1260025
:102CA00010F80A40FF2C17D106F08AF94EF6892257
:102CB000C0F6000200201021012306F047FC06F0B8
:102CC00071FC40F2DC5000F0D5FC05F0DBFE0BB0EF
:102CD000BDE8F04F704700BF08F0AEFB642000F085
:102CE000C9FC204607F044FB80B1054606F068F9B0
:102CF0002DA200201021012306F028FC2846FFF712
:102D00004DF9024600201821D6E700BFA01E052875
:102D10000CD840F23C13C2F2000301211A7801FAE8
:102D200000F022EA0000187009F092FC06F048F961
:102D300021A200201021022306F008FC0DF112054B
:102D400021A1284622460AF0C7FB002020212A465E
:102D5000012306F0FBFB06F025FC4FF4FA60B2E716
:102D600053656C65637420465020746F2064656CF5
:102D70006574653A0000000025643A2046696E6774
:102D8000657220494420256400000000456E74658A
:102D9000723A2064656C2C204261636B3A20636157
:102DA0006E63656C0000000044656C6574652066A8
:102DB00061696C656400000046696E676572206435
:102DC000656C65746564210049443A2025640000FF
:102DD000B0B516A00BF06CF809F06EFB40F2421093
:102DE000C2F20000002404700120FDF7DFFF40F272
:102DF0004415C2F20005287830B140F25410C2F2F6
:102E0000000009F0C5FC2C7006F0DAF809A20020D9
:102E10001021022306F09AFB06F0C4FB4FF47A70EF
:102E200000F028FCBDE8B04005F09CBD4C6F636B22
:102E30000D000000446F6F72204C6F636B6564215E
:102E400000000000B0B51BA00BF032F84FF4FA7090
:102E500009F03CFB0220FDF7A9FF40F24414C2F246
:102E60000004217840F24210C2F2000001250570F2
:102E700029B140F25410C2F2000009F089FC40F27E
:102E80005410C2F2000041F2883109F077FC25703D
:102E900006F096F809A200201021022306F056FB46
:102EA00006F080FB4FF47A7000F0E4FBBDE8B04020
:102EB00005F058BD556E6C6F636B0D00446F6F72FB
:102EC000204F70656E656421000000002DE9F04F11
:102ED0008BB040F24110C2F20000007840F2281896
:102EE0000028C2F2000800F08980002088F8000065
:102EF0004020FDF759FC04464120FDF755FCC0B2C7
:102F00000A28014640F6142528BF0A210028C2F2EB
:102F10000005049100F0F280092840F289800499AC
:102F20000B2001FB00F700264FF04C09A0B24CF635
:102F3000CD414843C00C00EB8000A4EB400A422086
:102F400000EB0A1080B2FDF72FFCA855432000EBE0
:102F50000A1080B205EB060BFDF726FC8BF801008A
:102F6000442000EB0A1080B2FDF71EFC8BF8020033
:102F7000452000EB0A1080B2FDF716FC8BF8030029
:102F8000462000EB0A1080B2FDF70EFC8BF804001F
:102F9000472000EB0A1080B2FDF706FC8BF8050015
:102FA000482000EB0A1080B2FDF7FEFB8BF806000C
:102FB000492000EB0A1080B2FDF7F6FB8BF8070002
:102FC0004A2000EB0A1080B2FDF7EEFB8BF80800F8
:102FD0004B2000EB0A1080B2FDF7E6FB8BF80900EE
:102FE00009EB0A1080B2FDF7DFFB0B36B74204F1A4
:102FF00001048BF80A0099D180E000BF05F0E0FFE2
:103000004EF63022C0F600020020102101230124D8
:1030100006F09CFA06F0C6FA08F1080040F2DC510E
:1030200009F0ACFB88F803400BB0BDE8F08F00BF9F
:1030300004990B2001FB00F400264FF04B0A4FF0DF
:103040004C0B0027422000EB071080B2FDF7ACFBD1
:10305000A855432000EB071080B205EB0609FDF7E9
:10306000A3FB89F80100442000EB071080B2FDF7B4
:103070009BFB89F80200452000EB071080B2FDF7AA
:1030800093FB89F80300462000EB071080B2FDF7A0
:103090008BFB89F80400472000EB071080B2FDF796
:1030A00083FB89F80500482000EB071080B2FDF78C
:1030B0007BFB89F80600492000EB071080B2FDF782
:1030C00073FB89F807004A2000EB071080B2FDF778
:1030D0006BFB89F808000AEB071080B2FDF764FB70
:1030E00089F809000BEB071080B2FDF75DFB0B368A
:1030F000B44207F1010789F80A00A3D104980DF141
:10310000140B88F800004FF48070A8F801000AE062
:10311000481E88F80100642000F0ACFA98F802001C
:10312000002800F0098205F04BFF002000210FF27B
:103130001442012306F00AFA4EF63C220020082130
:10314000C0F60002012306F001FA98F8010098F891
:10315000001000F0FC0A8A4580F0CA810B200AFBAF
:103160000054A946A7796378A078E1782279013FD5
:10317000062F2BD84EF6F226C0F60006DFE807F041
:1031800004361A20142C3200E7794EF62C36013F13
:10319000FFB2042FC0F6000628D24DF6D466C0F662
:1031A000000656F8276021E04EF64A36C0F60006C3
:1031B0001CE000BF4EF6E826C0F6000616E000BF91
:1031C0004EF64436C0F6000610E000BF4EF63C3620
:1031D000C0F600060AE000BF4EF6B726C0F60006AD
:1031E00004E000BF4EF6BF26C0F600068DE80700DB
:1031F0004EF6503258461821C0F6000203960AF0E7
:1032000051F95846FCF7CEFF152824BF00208DF851
:10321000280098F801004D46824505D10020102174
:103220003E22012306F066F8082010215A460123A9
:1032300006F08CF998F800004AF00106864280F00A
:1032400057810B2006FB0057BD797B7897F802C0A9
:10325000F9783A79013D062D2CD84EF6F224C0F6C5
:103260000004DFE805F005371B21152D330000BFF2
:10327000F8794EF62C340138C7B2042FC0F600049A
:1032800028D24DF6D460C0F6000050F8274021E067
:103290004EF64A34C0F600041CE000BF4EF6E824A7
:1032A000C0F6000416E000BF4EF64434C0F6000439
:1032B00010E000BF4EF63C34C0F600040AE000BF48
:1032C0004EF6B724C0F6000404E000BF4EF6BF245B
:1032D000C0F6000402924EF65032CDE900C15846C5
:1032E0001821C0F6000203940AF0DCF85846FCF7F7
:1032F00059FF152824BF00208DF8280098F80100F8
:103300004D46864205D1002018213E22012305F0BA
:10331000F1FF082018215A46012306F017F998F802
:1033200000004AF00206864280F0E2800B2006FB95
:103330000057BD797B7897F802C0F9783A79013D5A
:10334000062D2BD84EF6F224C0F60004DFE805F077
:1033500004361A20142C3200F8794EF62C34013839
:10336000C7B2042FC0F6000428D24DF6D460C0F6D0
:10337000000050F8274021E04EF64A34C0F6000421
:103380001CE000BF4EF6E824C0F6000416E000BFC3
:103390004EF64434C0F6000410E000BF4EF63C3454
:1033A000C0F600040AE000BF4EF6B724C0F60004E1
:1033B00004E000BF4EF6BF24C0F6000402924EF6B1
:1033C0005032CDE900C158461821C0F600020394DE
:1033D0000AF068F85846FCF7E5FE152824BF0020DF
:1033E0008DF8280098F801004D46864205D100204E
:1033F00020213E22012305F07DFF082020215A468E
:10340000012306F0A3F898F800004AF0030686426C
:103410006ED20B2006FB0057BD797B7897F802C06F
:10342000F9783A79013D062D2CD84EF6F224C0F6F3
:103430000004DFE805F005371B21152D330000BF20
:10344000F8794EF62C340138C7B2042FC0F60004C8
:1034500028D24DF6D460C0F6000050F8274021E095
:103460004EF64A34C0F600041CE000BF4EF6E824D5
:10347000C0F6000416E000BF4EF64434C0F6000467
:1034800010E000BF4EF63C34C0F600040AE000BF76
:103490004EF6B724C0F6000404E000BF4EF6BF2489
:1034A000C0F6000402924EF65032CDE900C15846F3
:1034B0001821C0F60002039409F0F4FF5846FCF707
:1034C00071FE152824BF00208DF8280098F801000F
:1034D0004D46864205D1002028213E22012305F0D9
:1034E00009FF082028215A46012306F02FF800BFC3
:1034F0000020382117A2012306F028F806F052F820
:1035000003F06CFC98F801100B2802D100297FF41D
:10351000FFAD0F280CD00C287FF4FDAD98F800000B
:1035200001388842C4BF481C88F80100F3E500BF99
:10353000002088F80200EEE505F0A4FA0BB0BDE823
:10354000F08F00BF4F7065726174696F6E204C6FB1
:103550006773000055502F444F574E3A2073656CE7
:103560002C204241434B3A206578697400000000EA
:10357000014690F82100022816D10868D1E90FC34E
:10358000026822F00E020260026822F0010202606C
:10359000012000FA03F2CCF8042081F82100002079
:1035A000002281F820207047042088630120002237
:1035B00081F820207047000090F82110022923D1C3
:1035C000026840F2040C1168C4F2020C21F00E01F2
:1035D000116013682F21C4F202018A4223F0010313
:1035E000136015DD3023C4F202039A421CD0442339
:1035F000C4F202039A421BD05823C4F202039A4237
:103600001CD14FF4803321E00421816301207047F5
:103610000823C4F202039A420ED01C23C4F2020310
:103620009A420BD1102311E04FF480730EE000BFDB
:103630004FF480530AE000BF012307E00CF168015A
:103640004FF080738A4208BF4FF480130121CCF8F9
:10365000003080F82110416B0022002980F82020E2
:1036600004BF0020704780B58847002080BD00005F
:10367000806B7047B0B5044600F02CF9054640F267
:103680001400C2F200000078611C18BF044400BF9F
:1036900000F020F9401BA042FAD3B0BD2DE9F04F55
:1036A00082B00E68002E00F0FD8041F20042C4F2AC
:1036B0000102042340F2004E904208BF03234FF65C
:1036C000FF7CC4F2010E009300240123C1F2100C10
:1036D0004FF0000A4FF000094BE000BF41F200023A
:1036E000C4F20102009F904208BF022704F00C03BD
:1036F0000F229A402BEA020207FA03F34FEA9A05D7
:103700001A4346F825204E6840F20C45F202DEF8D6
:10371000082054BF22EA080242EA0802C4F2010566
:10372000CEF808202A68B30254BF22EA080242EA0F
:1037300008022A60B303DEF8042054BF22EA08021C
:1037400042EA0802F303CEF80420DEF800204FF02E
:10375000010354BF22EA080242EA0802CEF8002020
:103760000E680AF1010A36FA0AF204F1040400F0C4
:10377000998003FA0AFB16EA0B08F1D04E686645F9
:1037800012DC122E56D8DFE806F0350B4D495555A0
:10379000555555555555555555555545510000BF2D
:1037A000D1F80C9046E000BF4FF6FF72C1F2210243
:1037B00096420FDC0022C1F2110296421AD000227A
:1037C000C1F21202964215D00022C1F221029642A5
:1037D00010D02FE00022C1F2220296420AD000222D
:1037E000C1F23102964205D00022C1F23202964265
:1037F00020D100BF8A684AB1012A14BFC0F814B0B2
:10380000C0F810B04FF0080914E000BF4FF00409F1
:1038100010E000BFCA6802F104090BE04FF0000994
:1038200008E000BFCA6802F1080903E0CA6802F1B3
:103830000C0900BF02462646B8F5807F24BF04323B
:10384000203E17680F25B54027EA050509FA06F658
:1038500035431560CA79D2067FF582AF41F218036D
:10386000C4F202031A68AEF57E7642F001021A60D5
:103870001A6802F001020192019A2AF0030256F836
:1038800002B040F60002C4F20102904208D040F6B5
:103890000042C4F2010290427FF420AF012725E7E5
:1038A000002723E702B0BDE8F08F000080680840E1
:1038B00018BF012070470000C26802EA010391436B
:1038C00041EA034101617047002A08BF0904016110
:1038D0007047000040F68420C2F200000068704784
:1038E000002804BF01207047F0B581B0044690F86D
:1038F0003D0028B9002084F83C00204600F0F6FA8C
:10390000242084F83D002068016821F00101016055
:10391000016841F400410160016821F40041016047
:1039200000F0B8FD636848F2A16CC0F2010C40F6EB
:103930000011C0F23D0163453CBF48F28041C0F236
:103940001E01884202D2012001B0F0BD4DF6836114
:10395000C4F21B31A0FB01122168970CD1F804E0DE
:103960004FF496762EF03F0545EA92454D60774339
:1039700048F638160D6AC0F24106A7FB067625F018
:103980003F07634538BF960C721C3A430A62CA6906
:1039900048F2A0664CF6FF77C0F20106B34222EA75
:1039A00007020BD801385B00B0FBF3F001306FF376
:1039B0001F30042898BF04201BE000BFA76801380F
:1039C00057B119277B43B0FBF3F001306FF31F3081
:1039D00070B100F5804007E003EB4303B0FBF3F068
:1039E00001306FF31F3018B100F5004001E000BF57
:1039F00001201043C8610868D4E9072320F0C00003
:103A0000104318430860886848F2FF3204F10C073D
:103A100090438CCF18431043A6698860C86820F093
:103A2000FF0038433043C860086840F00100086078
:103A300000202021206484F83D10206384F83E009B
:103A400001B0F0BD2DE9F04F85B004460020994645
:103A500016460F460490FFF73DFF94F83D102029CD
:103A600027D10546206800BF816989071CD5FFF76B
:103A700031FF411B20681A29F6D381698907F3D5E4
:103A800000202021206384F83D1084F83E00206C43
:103A900004F13C0A40F020002064022000218AF852
:103AA000001005B0BDE8F08FA2461AF83C1F0129AE
:103AB00004D1022005B0BDE8F08F00BF01228AF8D2
:103AC00000200368DDE90F180E9ADB0703D10368B5
:103AD00043F001030360036823F4006303602220C2
:103AE00084F83D00402084F83E000020206462629B
:103AF0006185608D394620850020CFF6FF70E06239
:103B0000204632464B46CDE9008502F0A7FB18B1AE
:103B1000012005B0BDE8F08F208D022826D00128B5
:103B20000ED0002838D1002003902068416903910D
:103B3000816903910399016841F40071016037E0E4
:103B40002068016821F480610160EFF3108072B693
:103B500000200390206841690391816903910399D2
:103B6000016841F40071016062B621E020680168DB
:103B700041F400610160EFF3108072B60020039001
:103B8000206841690391816903910399016821F4D7
:103B90008061016062B60BE02068016841F48061D9
:103BA00001600021039141690391806903900398AA
:103BB000208D002800F0CC80042740F220094BF231
:103BC000895BC0F20107C2F20009C1F2F84B23265B
:103BD0000EE000BF10690870606A218D01306062DC
:103BE000481E2085618D01396185010400F0B08097
:103BF00080B203280CD802282CD001284AD12046B4
:103C000041462A4602F0C8FD002800F09C807FE76C
:103C1000204641462A4602F0BFFD00287FF478AFD7
:103C20002068616A00690870606A2268411C208D02
:103C3000616201382085638D013B638553695B07B1
:103C4000D3D580B20328C5D1106820F480601060FD
:103C5000C0E700BF2046394600224346009502F0E7
:103C600049FC00287FF454AFEFF3108072B620684F
:103C7000616A026842F40072026000690870606A5A
:103C8000218D01306062481E2085608D013860857D
:103C900062B658E02046394600224346009502F0BD
:103CA00029FC00287FF434AF2068016821F480618A
:103CB0000160EFF3108072B62068616A00690870D5
:103CC000606A218D0130013960622185618D013981
:103CD0006185D9F80010C908A1FB0B12110A7143C4
:103CE0000491049901390491049900293CD0216878
:103CF0004A69520717D4049A013A0492049A9AB373
:103D00004A6952070FD4049A013A0492049A5AB3AA
:103D10004A69520707D4049A013A0492049A1AB3E2
:103D20004A695207DDD50A6842F400720A600969DF
:103D30000170606A218D01306062481E2085608DAF
:103D40000138608562B62068616A006943E700BF98
:103D5000202084F83D00002084F83E0000218AF8ED
:103D6000001005B0BDE8F08F00202021206384F80A
:103D70003D1084F83E00206C40F02000206462B6C4
:103D8000012000218AF8001005B0BDE8F08F000086
:103D90002DE9F04383B0994616460F460446FFF7D7
:103DA00099FD94F83D10202924D10546206800BFD4
:103DB000816989071AD5FFF78DFD411B20681A29F3
:103DC000F6D381698907F3D500202021206384F888
:103DD0003D1084F83E00216C41F02001216484F8FC
:103DE0003C00022003B0BDE8F08300BF94F83C1013
:103DF000012903D1022003B0BDE8F083012284F839
:103E00003C200368DDE90B180A9ADB0703D103683D
:103E100043F001030360036823F40063036021207F
:103E200084F83D00402084F83E0000202064626257
:103E30006185608D394620850020CFF6FF70E062F5
:103E4000204632464B46CDE9008502F091FA18B182
:103E5000012003B0BDE8F083208D98B9204641468B
:103E60002A4602F0E9FA88B3206C0428F0D12068D1
:103E7000016841F400710160012003B0BDE8F083E6
:103E80000004EBD0204641462A4602F0CDFC002833
:103E9000EAD1616A2268084610F8013B1361238D5C
:103EA0006062581E2085678D013F678557697F07CF
:103EB000E6D50704E4D048781061881C6062981E3B
:103EC0002085618D01396185DAE700BF20680168CE
:103ED00041F400710160202084F83D00002084F846
:103EE0003E0084F83C0003B0BDE8F08310B586B016
:103EF000016845F20040C4F2000081424FF0000129
:103F0000CDE90411CDE9021102D006B010BD00BF09
:103F100041F21804C4F20204216800F5384041F06F
:103F200008012160216801F0080101910199C02177
:103F30000291122103910321059102A9FFF7AEFB23
:103F4000606840F400106060606800F40010019048
:103F5000019806B010BD000040F2140040F6842124
:103F6000C2F20000C2F2000100780A681044086042
:103F70007047000080B542F20000C4F20200016800
:103F800041F010010160032000F08CF80F2000F0D8
:103F900005F800F027F8002080BD000070B540F261
:103FA0001406C2F2000640F220013278C2F200018B
:103FB0004FF47A730968B3FBF2F20446B1FBF2F1F5
:103FC000084601F025F90F2C4FF0010508D838B943
:103FD0004FF0FF3021460022002500F037F87460D2
:103FE000284670BD82B041F21800C4F20200016898
:103FF000022241F001010160016801F0010101911B
:104000000199416841F080514160406800F0805062
:10401000009000980420C4F20100016862F31A6164
:10402000016002B070470000002848BF704700F0F0
:104030001F01012202FA01F11C2202EAD0004EF215
:104040000012CEF2000281507047000010B54EF60B
:104050000C5CCEF2000CDCF80030C3F3022E8EF0C4
:104060000704042C28BF0424BEF103034FF0FF3ED5
:104070000EFA04F438BF0023A14399400EFA03F36B
:104080009A43114300F00F0200F160430901043A22
:1040900003F564436244002848BF02F10C03197021
:1040A00010BD00004EF60C51CEF200010A684FF62A
:1040B000FF031A4060F30A2242F0806040F0FD7076
:1040C000086070472020C4F20E2000210160704774
:1040D0002020C4F20E20012101607047012821D068
:1040E00002280DD0102808D141F20401C4F20201C7
:1040F0000A6851F8040CC00134D40020704700BF96
:1041000080B500F0DBF941F20401C4F20201096854
:104110000222C1F3813102EB4101B0FBF1F0BDE8B5
:104120008040704741F20400C4F20200C16940F2CD
:1041300002320A40B2F5817F04BF4FF4004070475D
:1041400001F44071B1F5407F18D0B1F5007F1CBF7C
:1041500000207047006A49F64041800701EAE0709C
:10416000704700BFC2F3834015A3185CD2030DD47F
:1041700040F60012C0F23D02504313E050F8040C28
:104180004FF22441800301EAE07070470A6810A3EF
:10419000C2F340429A5C41F20023C0F27A03B3FBBF
:1041A000F2F250430968490248BF70474AF6AB2112
:1041B0004000CAF6AA21A0FB01014808704700BFD1
:1041C00002030405060708090A0B0C0D0E0F101058
:1041D000010200002DE9F04182B00446007841F26E
:1041E0001C06C007C4F202064AD030685FEAC00865
:1041F00008D4306840F080503060306800F0805063
:104200000190019847F20007C4F200073868C00522
:1042100012D4386840F480703860FFF75BFB0546C5
:104220003868C00508D4FFF755FB401B6428F7D950
:10423000032002B0BDE8F081706810F4407012D025
:10424000616801F4407188420DD0706840F24042CC
:10425000C4F24222012320F4407113600023C007FE
:104260001360716026D17068616820F44070084363
:10427000B8F1000F706003D4306820F080503060D7
:104280002068810707D556F8181CA26821F4404120
:10429000114346F8181CC00607D556F8180CE168FB
:1042A00020F48000084346F8180C002002B0BDE856
:1042B000F08100BFFFF70EFB054641F2883700BFD3
:1042C00070688007CFD4FFF705FB401BB8424FF062
:1042D0000300F5D9EAE70000002804BF0120704779
:1042E0002DE9F04381B042F20008C4F2020804460E
:1042F000D8F800000D4600F0070081420CD9D8F82C
:10430000000020F007002843C8F80000D8F800009B
:1043100000F00700A8426CD1206841F2040981072F
:10432000C4F2020917D5410705D5D9F8001041F4A8
:10433000E061C9F80010010705D5D9F8001041F473
:104340006051C9F80010D9F80010A26821F0F001FE
:104350001143C9F80010C00742D1D8F8000000F09E
:10436000070085420CD2D8F8000020F0070028434F
:10437000C8F80000D8F8000000F00700A84238D1C3
:104380002068410707D5D9F80010E26821F4E06100
:104390001143C9F80010000708D5D9F800002169B9
:1043A00020F4605040EAC100C9F80000D9F80020AC
:1043B00002F00C00082841F20020C0F27A004DD132
:1043C0004EF22673C2F38341C0F60003595CD20358
:1043D00038D440F60010C0F23D0048433EE000BF34
:1043E000606859F8041C022808D0012826D18903E6
:1043F00006D4012001B0BDE8F08300BF8901F8D5E3
:10440000D9F8001021F003010843C9F80000FFF7B4
:1044100061FA064641F28837D9F80000616800F079
:104420000C00B0EB810F98D0FFF754FA801BB84214
:10443000F2D9032001B0BDE8F08300BF8907D8D5C9
:10444000DEE700BFD9F800204EF22473C2F34042E9
:10445000C0F600039A5C4843B0FBF2F0D9F80010B4
:104460004DF6E462C1F30311C0F60002515C40F264
:10447000200220FA01F140F21800C2F200000068A8
:10448000C2F200021160FFF789FD002001B0BDE813
:10449000F083000040F2200041F20401C2F200006B
:1044A000C4F20201006809684DF6F462C1F302210A
:1044B000C0F60002515CC8407047000040F2200086
:1044C00041F20401C2F20000C4F20201006809686E
:1044D0004DF6F462C1F3C221C0F60002515CC8403F
:1044E00070470000002804BF012070472DE9F0410B
:1044F00082B00446007841F20006C007C4F202060A
:104500000CD0706800F00C00042840F08180306806
:10451000800303D56068002800F04681207880077A
:104520001BD5706810F00C0F09D0706800F00C00FB
:10453000082840F087807068C00300F183803068ED
:10454000800703D52069012840F02E813068616919
:1045500020F0F80040EAC10030602078000713D452
:10456000207840072CD4E569002D00F01881706890
:1045700000F00C00082840F0A780012D40F00481D5
:10458000012002B0BDE8F081A069002800F084801D
:104590000020C4F242200121C0F88014FFF79AF9EC
:1045A000054600BF706A800700F1B280FFF792F9FC
:1045B000401B0228F6D9032002B0BDE8F08100BFFD
:1045C000F0695FEAC00808D4F06940F08050F061FB
:1045D000F06900F080500090009847F20007C4F2A4
:1045E00000073868C00549D4386840F480703860E6
:1045F000FFF770F9054600BF3868C0053ED4FFF7E5
:1046000069F9401B6428F7D9032002B0BDE8F081A6
:10461000706800F00C00082803D17068C0033FF5F3
:1046200076AF61683068002900F00C81B1F5A02FE9
:1046300000F00081B1F5803F40F01A8140F48030F5
:104640001CE100BF2069002840F20000C4F24220B3
:1046500000F0888001210160FFF73CF9054600BFAA
:10466000306880073FF572AFFFF734F9401B02282E
:10467000F6D9032002B0BDE8F08100BFE168306ADE
:10468000002900F09D80052900F09280012940F06A
:10469000AF8040F00100B1E00020C4F242200021D0
:1046A000C0F88014FFF716F9054600BF706A80074E
:1046B0007FF556AFFFF70EF9401B0228F6D903200D
:1046C00002B0BDE8F08100BF0027C4F242270020FD
:1046D0003866FFF7FFF8022D05460DD130688001DE
:1046E00040F1DE80FFF7F6F8401B02284FF0030090
:1046F000F4D902B0BDE8F081306880014FD5FFF7F2
:10470000E9F8401B02284FF00300F5D9F1E700BF9C
:1047100040F22000C2F20000006844F6D351C1F21A
:104720006201A0FB0101480A019000BF00BF01988F
:10473000411E002801913FF413AF00BF0198411EB4
:10474000002801913FF40CAF00BF0198411E0028E2
:1047500001913FF405AF00BF0198411E002801916F
:10476000E4D1FDE600210160FFF7B4F8054600BF83
:10477000306880077FF5F1AEFFF7ACF8401B0228E8
:104780004FF00300F4D9B4E77068216A00F4803276
:104790008A4209D1616A00F47010884204D1002075
:1047A00002B0BDE8F08100BF012002B0BDE8F08199
:1047B00040F004003062306A40F001001EE000BFAB
:1047C00020F001003062306A20F004003062FFF710
:1047D00081F8054641F28837306A800720D5FFF717
:1047E00079F8401BB8424FF00300F5D981E700BFCC
:1047F00020F001003062306A20F004003062FFF7E0
:1048000069F8054641F28837306A800708D4FFF717
:1048100061F8401BB842F7D9032002B0BDE8F0812F
:10482000B8F1000F3FF59FAEF06920F08050F061C5
:1048300099E600BF40F480203060306840F480305A
:104840001CE000BF20F480303060306820F480200D
:104850003060FFF73FF80546306880037FF55EAEB5
:10486000FFF738F8401B64284FF00300F4D940E705
:1048700020F480303060306820F480203060FFF712
:1048800029F80546306880033FF548AEFFF722F867
:10489000401B6428F6D9032002B0BDE8F08100BFB8
:1048A000206AB0F5803F05D17168A26821F400311B
:1048B000114371607168626A21F4741111430843F5
:1048C000706001203866FFF705F804463068800103
:1048D0003FF565AFFEF7FEFF001B02284FF0030017
:1048E000F4D906E7002804BF0120704770B50446DC
:1048F000407C20B900202074204600F06BF8022094
:1049000060742068416821F008014160FEF7E2FF11
:10491000064600BF20684568FEF7DCFF290705460C
:104920000ED4A81BB0F57A7FF4D90120042161745C
:1049300070BD00BFFEF7CEFF401BB0F57A7FF4D804
:10494000216848688006F5D5486846F62C4240F054
:10495000100048604868C4F2000220F00700486078
:10496000A06818B1536823F001035360136823F45F
:104970006073184310606068421C05D10120FFF786
:10498000ADFB18B321680138C0F3034280B28A60DE
:10499000C860486820F010004860FEF79BFF05469D
:1049A00020684068800607D4FEF794FF401BB0F5EE
:1049B0007A7FF5D9B9E700BF40F201110020A4F8D1
:1049C0000D100121E073617470BD00BF042101204E
:1049D000617470BD006842F60001C4F200018842B3
:1049E00018BF704780B582B0FFF772FB41F21C0020
:1049F000C4F20200016841F0006101600068012119
:104A000000F000600190019840F23C40C4F2422066
:104A1000016002B0BDE880407047000070B528B169
:104A2000416A29B100210161142106E0012070BD15
:104A30004168B1F5827F02D01C210022425000263D
:104A4000866290F8511029B980F85060054600F050
:104A500039F82846022180F8511090E82E0002F41F
:104A600082720C6803F4044324F040040C601A447E
:104A700005F4006305691A4405F0020345691A4408
:104A800005F001038569C4691A4405F400731A44EA
:104A900004F03803046A1A4404F08003846A1A4359
:104AA00004F400531A430A60042202EA15424A60E1
:104AB000CA6922F40062CA610121466580F851107A
:104AC000304670BD70B586B040F60004C4F20104F3
:104AD000006804F52051002688420596CDE903665A
:104AE000029601D006B070BD41F21800C4F2020077
:104AF000016802AD41F480510160016801F4805108
:104B000001910199016841F00401016000682946A2
:104B100000F0040001900198A02002900220039070
:104B2000032005902046FEF7B9FD4020CDE902069E
:104B3000204629460496FEF7B1FD06B070BD000080
:104B40002DE9F04182B0044690F85100012819D1B6
:104B500060681D4617460E46B0F5827F01D1A068F9
:104B6000A0B1FEF7B7FE8046002E4FF0010018BF3F
:104B7000002F03D102B0BDE8F08100BF94F85000CF
:104B8000012811D1022002B0BDE8F081042084F890
:104B900051002046314632463B46009500F0CEF9A2
:104BA00002B0BDE8F08100BF012084F8500004206D
:104BB000002184F851006165A663A787E787216318
:104BC000A186E186A2682068B2F5004F2164616485
:104BD00038D00168490640D5E168E08F002944D00B
:104BE00000287BD0681C0CD11BE000BFC068A16B03
:104BF00021F8020BA163E08F0138E087E08F0028E5
:104C00006CD020688168C907F0D1FEF763FEA0EB85
:104C10000800A842F2D342E0FEF75CFEE08F0028D5
:104C20005CD020688168C907F6D0C068A16B21F804
:104C3000020BA163E08F0138E087E08F0028F0D1FC
:104C40004CE000BF016821F040010160016821F4DF
:104C50008041016001684906BED4016841F040010D
:104C60000160E168E08F0029BAD1B8B3681C0CD1AB
:104C700024E000BF007BA16B0870A06B0130A06333
:104C8000E08F0138E087E08F40B320688168C90772
:104C9000F0D1FEF71FFEA0EB0800A842F3D30120DD
:104CA00084F85100002084F85000032002B0BDE8D1
:104CB000F08100BFFEF70EFEE08F78B120688168BA
:104CC000C907F7D0007BA16B0870A06B0130A0630F
:104CD000E08F0138E087E08F0028EFD16068B0F501
:104CE000827F11D1A068B0F5004F02D0B0F5806F7F
:104CF0000AD12168B0F5806F0A6822F040020A608C
:104D000002D12046012101E02046802100222B46CD
:104D1000CDF8008007F00AFC28B1606D40F020005B
:104D2000606520206065012084F85100002084F82F
:104D30005000606D002818BF012002B0BDE8F0816E
:104D40002DE9F04182B01D4616460F460446FEF797
:104D5000C1FD94F8511001290ED18046002F4FF06B
:104D6000010018BF002E03D102B0BDE8F08100BFE2
:104D700094F85000012803D1022002B0BDE8F08170
:104D8000012084F850000320002184F8510061655F
:104D90002763A686E686A163A187E187A0682164D0
:104DA000B0F5004F2068616407D1016821F040012F
:104DB0000160016841F4804101600168490603D443
:104DC000016841F0400101606168731EE268B1FA58
:104DD00081F1B3FA83F349095B09B2F5006F41EA47
:104DE000030139D131B137F8021BC1602763E08E6E
:104DF0000138E086E08E002870D0681C0BD11AE0E4
:104E0000216B31F8022BC2602163E08E0138E0860D
:104E1000E08E002862D0206881688907F0D4FEF710
:104E200059FDA0EB0800A842F2D338E0FEF752FD8E
:104E3000E08E002852D0206881688907F6D5216B62
:104E400031F8022BC2602163E08E0138E086E08EEB
:104E50000028F0D142E000BF39B139780173206BEE
:104E600001302063E08E0138E086E08EB0B3681C2C
:104E70000BD123E0216B09780173206B0130206393
:104E8000E08E0138E086E08E40B3206881688907B3
:104E9000F0D4FEF71FFDA0EB0800A842F3D30120D9
:104EA00084F85100002084F85000032002B0BDE8CF
:104EB000F08100BFFEF70EFDE08E78B120688168BA
:104EC0008907F7D5216B09780173206B01302063C6
:104ED000E08E0138E086E08E0028EFD120460221E6
:104EE00001222B46CDF8008007F020FB40B9204678
:104EF000802100222B46CDF8008007F017FB28B157
:104F0000606D40F02000606520206065A06838B9C1
:104F1000002001902068C16801918068019001988B
:104F2000012084F85100002084F85000606D0028B2
:104F300018BF012002B0BDE8F08100002DE9F04368
:104F400083B01E4615460F460446FEF7C3FC94F890
:104F500051108146012909D1002F4FF0010018BFDF
:104F6000002D0FD103B0BDE8F08300BF6068B0F53D
:104F7000827F0DD104294FF00200F3D1A1680029EE
:104F8000EAD0EFE7002EEDD094F85000012803D1CD
:104F9000022003B0BDE8F083012084F8500094F8AB
:104FA0005100002104281CBF052084F851006165D0
:104FB000A563E687A6872763E6862068A686216420
:104FC00061640168490603D4016841F04001016051
:104FD0006168731EE268B1FA81F1B3FA83F3DDF818
:104FE000288049095B09B2F5006F41EA030165D1E8
:104FF00031B137F8021BC1602763E08E0138E086CB
:10500000012518F1010032D102E000BFFEF762FC79
:10501000E08E18B9E08F002800F0B8802068816821
:1050200089070CD5E18E51B1012D08D1216B0025E6
:1050300031F8022BC2602163E18E0139E18681687B
:10504000C907E3D0E18F0029E0D0C068A16B01253A
:1050500021F8020BA163E08F0138E087D6E700BF9B
:10506000FEF738FCA0EB0900404580F0AF80E08EF1
:1050700018B9E08F002800F08980206881688907CE
:105080000CD5E18E51B1012D08D1216B002531F8ED
:10509000022BC2602163E18E0139E1868168C90774
:1050A000DED0E18F0029DBD0C068A16B012521F89B
:1050B000020BA163E08F0138E087D1E739B139787D
:1050C0000173206B01302063E08E0138E0860125FA
:1050D00018F1010032D101E0FEF7FCFBE08E10B9BF
:1050E000E08F002852D02068816889070ED5E18EB4
:1050F00061B1012D0AD1216B002509780173216B63
:10510000206801312163E18E0139E1868168C90798
:10511000E2D0E18F0029DFD0C068A16B01250870C3
:10512000A06B0130A063E08F0138E087D4E700BFB7
:10513000FEF7D0FBA0EB0900404547D2E08E08B94E
:10514000E08F18B32068816889070ED5E18E61B1C0
:10515000012D0AD1216B002509780173216B20688C
:1051600001312163E18E0139E1868168C907DFD011
:10517000E18F0029DCD0C068A16B01250870A06B0D
:105180000130A063E08F0138E087D1E7204602219B
:1051900001224346CDF8009007F0C8F940B92046F7
:1051A000802100224346CDF8009007F0BFF9B8B146
:1051B000606D40F02000606520206065002084F86C
:1051C0005000012003B0BDE8F08300BF012084F847
:1051D0005100002084F85000032003B0BDE8F083A4
:1051E000A06838B9002002902068C16802918068E8
:1051F00002900298012084F85100002084F85000A9
:10520000606D002818BF012003B0BDE8F0830000E6
:10521000411E0020B0EB116F1CBF012070474EF201
:105220001002CEF2000251604EF62351CEF2000180
:10523000F0230B70072190601160704770470000E9
:105240007047000090F83C20012A4FF0020236D04F
:1052500010B580F83D200268D2F804E0D2F808C00A
:105260000C682EF07003234340F2FF74C4F2000474
:10527000A24253600ADCB2F1804F13D040F20043E7
:10528000C4F200039A420DD011E000BF42F6004381
:10529000C4F201039A4205D040F60003C4F20003B1
:1052A0009A4204D149682CF080031943916001218E
:1052B000002280F83D1080F83C20BDE810401046E8
:1052C00070470000002804BF0120704710B590F817
:1052D0003D1031B9002180F83C10044600F070F810
:1052E0002046022180F83D10016840F2FF740B68EF
:1052F000C4F2000442F6004CA142C4F2010C15DCD9
:10530000B1F1804F1AD040F20042C4F20002914243
:1053100014D0A14218DCB1F1804F1DD040F2004200
:10532000C4F20002914217D01AE000BF614505D0D7
:1053300040F60002C4F200029142EAD1826823F0F2
:1053400070031343A142E6DD614505D040F600023B
:10535000C4F20002914203D1026923F44073134363
:10536000846923F08002D0F804E0C36822436145D9
:105370000A60CB62C1F828E002D14269CCF8302043
:1053800001224A610B69DB0703D00B6923F001039B
:105390000B6180F8462080F83E2080F83F2080F89E
:1053A000402080F8412080F8422080F8432080F897
:1053B000442080F8452080F83D20002010BD0000EA
:1053C000006840F20041C4F20001884218BF7047F3
:1053D00080B582B041F21C00C4F2020001680022D4
:1053E00041F0020101600068002100F0020001901C
:1053F00001981D20FEF72AFE1D2002B0BDE8804066
:10540000FEF712BE90F83C20012A4FF002026CD049
:1054100080B580F83D20D0F800C04FF67772DCF8F8
:10542000083023EA0202CCF808200B684F2B29DC55
:105430001F2B45DD202B46D0302B44D0402B40F095
:10544000AF80D1F804E0C968DCF82030DCF8202017
:1054500022F00102CCF82020DCF8182022F0F00223
:1054600042EA011123F00A0242EA0E02CCF81810B7
:10547000CCF82020DCF8081041F0470121F0300181
:1054800028E000BF6F2B33DDB3F5005F74D0B3F5B8
:10549000805F21D0702B40F08380D1E901E3C9689F
:1054A000DCF8082043EA0E0322F47F4243EA01219C
:1054B0001143CCF80810DCF8081041F0770109E03E
:1054C0000BB1102B6CD1DCF8081021F070011943DE
:1054D00041F00701CCF808100022012180F83D10AE
:1054E000002180F83C10BDE880401046704700BFA6
:1054F000502B21D0602B53D1D1F804E0C968DCF8DF
:105500002030DCF8202022F01002CCF82020DCF83B
:10551000182022F4704242EA013123F0A00242EA4C
:105520000E12CCF81810CCF82020DCF8081041F04E
:10553000670121F01001CDE7D1F804E0C968DCF87B
:105540002030DCF8202022F00102CCF82020DCF80A
:10555000182022F0F00242EA011123F00A0242EA86
:105560000E02CCF81810CCF82020DCF8081041F01E
:10557000570121F02001ADE7D1E901E3C968DCF86A
:10558000082043EA0E0322F47F4243EA012111433B
:10559000CCF80810DCF8081041F480419AE700BF0D
:1055A00001229AE77047000070B504460068C5689C
:1055B0000669B10716D515F0020113D06FF002018C
:1055C0000161012121778069800703D02046FFF720
:1055D000E9FF05E0204600F08FF8204600F08EF845
:1055E00000202077700719D515F0040016D0206828
:1055F0006FF00401016102212177806910F4407F7E
:1056000004D02046FFF7CEFF06E000BF204600F0A2
:1056100073F8204600F072F800202077300717D585
:1056200015F0080014D020686FF008010161042112
:105630002177C069800703D02046FFF7B3FF05E05C
:10564000204600F059F8204600F058F80020207756
:10565000F00619D515F0100016D020686FF0100173
:10566000016108212177C06910F4407F04D02046F1
:10567000FFF798FF06E000BF204600F03DF8204607
:1056800000F03CF800202077F00718BF15F001006B
:1056900002D1300609D412E020686FF001010161E7
:1056A000204600F02DF8300609D515F0800006D010
:1056B00020686FF0800101612046FFF7BFFD700692
:1056C00009D515F0400006D020686FF04001016157
:1056D000204600F017F8B00658BF70BD15F0200046
:1056E00008D021686FF0200220460A61BDE87040B2
:1056F000FFF7A6BD70BD00007047000070470000B6
:1057000070470000704700007047000010B5044665
:10571000206850E8030F216820F4907041E80302EC
:10572000BAB3206850E8030F216820F4907041E874
:10573000030272B3206850E8030F216820F49070D0
:1057400041E803022AB3206850E8030F216820F4DF
:10575000907041E80302002ADAD11AE0206850E88C
:10576000050F216820F0010041E80502DAB1206848
:1057700050E8050F216820F0010041E8050292B1D0
:10578000206850E8050F216820F0010041E805027B
:105790004AB1206850E8050F216820F0010041E877
:1057A0000502002ADAD1206B012824D1206850E8B4
:1057B000030F216820F0100041E80302DAB12068ED
:1057C00050E8030F216820F0100041E8030292B175
:1057D000206850E8030F216820F0100041E8030220
:1057E0004AB1206850E8030F216820F0100041E81A
:1057F0000302002ADAD120684069400636D500BF8E
:10580000206850E8050F216820F0400041E80502BB
:10581000DAB1206850E8050F216820F0400041E827
:10582000050292B1206850E8050F216820F0400081
:1058300041E805024AB1206850E8050F216820F0D0
:10584000400041E80502002ADAD1E06B70B1002186
:105850004163FDF78DFE48B1E06BFDF709FF20289D
:1058600004D110206064032010BD00BF002020215F
:10587000E08584F84210206310BD000070470000EE
:10588000B0B582B001680A68CC684B6902F02F0598
:10589000202D04F0200505D125B102B0BDE8B040AF
:1058A00006F08ABF5FEA027C1EBF03F0010E04F41B
:1058B000907313EB0E0341D1036BD50618D5012B62
:1058C00016D114F0100313D0002201920A6801923D
:1058D0004A680192019A496949064BD4818DC28D6B
:1058E000C38D002B18BF914240F0F48102B0B0BDCF
:1058F00013062DD514F080032AD090F84120212AD8
:10590000F4D18268B2F5805F03D10269002A00F009
:105910006782026A531C036212784A60C28C013AA1
:105920001304C284E2D1C86820F08000C860C8684F
:1059300040F04000C86002B0B0BD00BFD30718BF40
:1059400014F4807340F0D080530700F1D380D8E086
:105950005206CBD514F04002C8D0CA6822F04002EB
:10596000CA60202180F8411002B0BDE8B04000F0CC
:1059700071BC00BFC16B0A68526893B2002BB5D0EE
:10598000858DAB42B2D2C2858969202900F0A18001
:10599000016851E8031F026821F4807142E8031393
:1059A000DBB1016851E8031F026821F4807142E80D
:1059B000031393B1016851E8031F026821F4807159
:1059C00042E803134BB1016851E8031F026821F458
:1059D000807142E80313002BDAD1016851E8051FFA
:1059E000026821F0010142E80513C3B3016851E8E0
:1059F000051F026821F0010142E805137BB301682D
:105A000051E8051F026821F0010142E8051333B394
:105A1000016851E8051F026821F0010142E8051301
:105A2000002BDAD11BE000BF016851E8051F0268B6
:105A300021F0400142E80513DBB1016851E8051F80
:105A4000026821F0400142E8051393B1016851E872
:105A5000051F026821F0400142E805134BB10168BF
:105A600051E8051F026821F0400142E80513002BB0
:105A7000DAD1202180F8421000210163016851E849
:105A8000031F026821F0100142E80313DBB1016833
:105A900051E8031F026821F0100142E8031393B19B
:105AA000016851E8031F026821F0100142E8031366
:105AB0004BB1016851E8031F026821F0100142E870
:105AC0000313002BDAD1C16B04460846FDF750FDE5
:105AD000204602214163818DC28D891A89B202B0AC
